:1000000000308A00AF2D00000A108A100A11820702
:1000100028340C34013406340A108A100A1182077D
:1000200044346F346F347234203455346E346C344D
:100030006F3463346B346534643400340A108A10CE
:100040000A11820741346C34613472346D342134C6
:1000500000340A108A100A118207413464346D3466
:1000600069346E34203472346534713475346934D3
:1000700072346534643400340A108A100A1182071D
:1000800045346E34743465347234203443346F3400
:100090006434653420343A3400340A108A100A116A
:1000A00082072A3400340A108A100A118207573452
:1000B00072346F346E346734203443346F346434B4
:1000C000653400340A108A100A11820754347234DD
:1000D000793420344C346534663474342034253417
:1000E000753400340A108A100A11820743346F34C1
:1000F000643465342034473465347334743469347B
:100100006F346E3400340A108A100A1182072A34C0
:100110003D34413464346D3469346E3420342334D6
:100120003D345034753462346C3469346334003493
:100130000A108A100A11820743346F34643465341C
:100140002034533475347034653472347634693401
:10015000733465347534723400340A108A100A110D
:10016000820743346F34643465342034503475343A
:1001700062346C3469346334003445308400831352
:1001800000080319D1280130F800F701F70BC62841
:10019000F80BC5284A30F700F70BCC28CF28800B86
:1001A000C32800344C0EF039F7000F3008057704EF
:1001B000880000000814DC28081000348810F03093
:1001C0008316880083120815000008140000080830
:1001D000080E0F39CC0008100000081400000808B1
:1001E000080E0F39CB0008100030831688008312E8
:1001F0004C0EF700F030F70577084B04F80078084C
:10020000CB00CB1BDF28491C88104918881400003C
:100210000811000008104A0ECB000F30CB054B0828
:10022000CC00D2204A080F39CB00CC00D2200034B9
:1002300000308316880083128810081108100F30D0
:10024000C500BD200130B1003108033C031C30293A
:100250000330CC00D2200530C500BD20B10A2429CE
:100260000230CC00D220B1013108033C031C4129EB
:1002700031080420B200C9013208CA00DE20B10AE8
:1002800034298A110A12CB2D1030CB00F701FA0164
:10029000C80CC70C031C52294908F7070318FA0AAF
:1002A0004A08FA07FA0CF70CF90CF80CCB0B4829A2
:1002B0000034F701F8013C0803103D18F707F70C6C
:1002C000F80CBD18F707F70CF80C3D19F707F70CF9
:1002D000F80CBD19F707F70CF80C3D1AF707F70CE7
:1002E000F80CBD1AF707F70CF80C3D1BF707F70CD5
:1002F000F80CBD1BF707F70CF80C0034B2013208FC
:10030000033C031C9A2932083107B8003808031748
:100310008D0083168C130C1483120C080313B70082
:100320003508B6003408B5003308B4003708B30008
:10033000B20A7F29C8013608C7000330CA00E83076
:10034000C90044217908B9007808B8003508BC0014
:100350006430BD00592178083807BA003908BB005D
:100360000318BB0A3408BC000A30BD0059217808C4
:100370003A07BC003B08BD000318BD0A33083C0720
:10038000B700FA013708F8007A08F9000034C9010B
:100390000130CA00DE200034460BCF29D22940307C
:1003A000C700D329C70101304502C7074708803875
:1003B000C800C9014808CA00DE20003444080C3ACD
:1003C0000319E929063A0319F129023A0319F72911
:1003D000FC29C9010130CA00DE200230C500BD2061
:1003E000022A0130C5000230C600CC21022AC90110
:1003F0001030CA00DE20022A0130C9004408CA00B9
:10040000DE20022A00340F30C300C401FF30B000E8
:1004100083168700831207080F39C800C701FF3011
:1004200083168600831206084707A6004808A7001F
:100430000318A70A27080E3C0318252AFF3A031DB4
:10044000062A2608FE3C031C062A2608FE3C031D3D
:100450002F2A27080F3C031D2F2AC401C301260899
:10046000FD3C031D3A2A27080F3C031D3A2AC4010C
:100470000130C3002608FB3C031D452A27080F3C1A
:10048000031D452AC4010230C3002608F73C031DA2
:10049000502A27080F3C031D502AC4010330C30013
:1004A0002608EF3C031D5B2A27080F3C031D5B2A2F
:1004B000C4010430C3002608DF3C031D662A270858
:1004C0000F3C031D662AC4010530C3002608BF3C4B
:1004D000031D712A27080F3C031D712AC401063031
:1004E000C30026087F3C031D7C2A27080F3C031D00
:1004F0007C2AC4010730C300260F852A27080E3C3A
:10050000031D852AC4010830C300260F8E2A270840
:100510000D3C031D8E2AC4010930C300260F972A03
:1005200027080B3C031D972AC4010A30C300260F7D
:10053000A02A2708073C031DA02AC4010B30C300D2
:10054000A701A6014308F8004408F90000340F3061
:10055000B900BA01BB00BC01BD00BE01BF00C001B3
:100560003408C5003508C600CC21C30143083C202F
:1005700000380319BF2AC30AC400DE21B62A360890
:10058000C5003708C600CC21C9010F30CA00DE20E3
:100590000130B8003808043C031CFA2A0322790809
:1005A000C2007808C1003E08C0003D08BF003C08FA
:1005B000BE003B08BD003A08BC003908BB00420839
:1005C000BA004108B900C30143084D20003803199F
:1005D000ED2AC30AC400DE21E42A83160510831223
:1005E0000514FA30C500BD208316051083120510CE
:1005F000B80ACA2A4008C8003F08C7000330CA002A
:10060000E830C90044217908C4007808C3003E08D6
:10061000C8003D08C700CA016430C90044217908F8
:10062000FA0078084307C5004408C6007908031893
:10063000790FC6073C08C8003B08C700CA010A304A
:10064000C90044217908FA0078084507C700460820
:10065000C80079080318790FC80739084707F80058
:100660004808FA003A0803183A0FFA077A08F9001E
:100670000034C9010C30CA00DE200034F801F90151
:10068000F701FA014508031D482B44080319622BA2
:100690001030C6000310C20DC30DF70DFA0D45084A
:1006A0007A02031D552B44087702031C5E2B440875
:1006B000F702031CFA034508FA020314F80DF90DBA
:1006C000C60B4A2B0034B801B901BA01BB01BC0109
:1006D000BD01BE01BF010130B7003708043C031C57
:1006E000912B0310370D383E840083133608C30066
:1006F0003508C200C5010A30C4003E2378088000D6
:10070000840A790880003608C3003508C200C50194
:100710000A30C4003E237708B5007A08B600B70A4D
:100720006D2BB7013708033C031CC32B3708340774
:10073000C0000310370D383E84008313840A00087C
:10074000C20084030008C100400803178D00031392
:10075000410803178C0083168C130C1583120313A6
:100760000B08F7008B138316031755308D00AA3042
:100770008D008C148C18BA2B0C117708831203137C
:100780008B04B70A922B0034C72139230530C500EA
:100790000130C600CC21B40134087220003803199E
:1007A000D52BB40AC400DE21CC2B0330C5000230A7
:1007B000C600CC21B4013408832000380319E42B8F
:1007C000B40AC400DE21DB2B03227808B1000C3010
:1007D000B400FA30C500BD20B40BE92BC7213108A5
:1007E0000A3C031D152C0330C5000130C600CC2186
:1007F000B4013408982000380319022CB40AC4004C
:10080000DE21F92B0230B400B5000F30B600023003
:10081000B700A7227908B3007808B2002030B400EE
:100820002308B6002208B500632331080B3C031DE2
:100830003A2C0530C5000130C600CC21B401340883
:10084000AD2000380319282CB40AC400DE211F2C67
:100850000230B400B5000F30B6000230B700A72256
:100860007908B3007808B200B4012108B600200866
:10087000B50063238A110A120B2E2F10C7213923CA
:100880000530C5000130C600CC21B40134080C206D
:10089000003803194F2CB40AC400DE21462C22086C
:1008A0002402031D5B2C23082502031D5B2C290851
:1008B000A1002808A000B1013108033C031C782CDA
:1008C0003230C500BD20831605108312051483162F
:1008D0008510831285106430C500BD208316051075
:1008E000831205108316851083128514B10A5C2CBF
:1008F0008316851083128510B2013208093C031C4F
:10090000992C83160511831205110230B400FA30B8
:10091000C500BD20B40B872C831605118312051565
:100920000230B400FA30C500BD20B40B922CB20ADC
:100930007D2CB3013308013C031CB62C3230C500BA
:10094000BD2083160510831205148316051183122A
:1009500005116430C500BD208316051083120510F3
:100960008316051183120515B30A9A2C83160511F7
:10097000831205118A110A12F92D3608F801350281
:100980000318C52C3508F700D12CF7010830B70043
:10099000B50DF70D360877020318F700F80DB70B01
:1009A000C82C0034B1013108023C031CEF2C32305A
:1009B000C500BD208316051083120514831685100B
:1009C000831285106430C500BD2083160510831284
:1009D00005108316851083128514B10AD32CAA033F
:1009E000C72139230630C5000130C600CC21B20131
:1009F0003208532000380319012DB20AC400DE2149
:100A0000F82C0430B200FA30C500BD20B20B032D23
:100A1000C7210630C5000230C600CC21B201320821
:100A20006220B20AF7007708C400DE2109303202E2
:100A3000031D0F2D2A08B3001B30B4003308B50086
:100A40006430B600BD247708B30078083030031D49
:100A5000302DB41C372DB419372D341A2030332DD6
:100A6000B41134123414F8077808C400DE213308B6
:100A7000B5000A30B600BD247708B30078083030DE
:100A8000031D482DB4194C2D341C4C2D341A203024
:100A9000F8077808C400DE213030B3073308C400FB
:100AA000DE211430B200FA30C500BD20B20B532D48
:100AB00083168510831285108A110A12FD2D2F14BA
:100AC000C7210830C5000130C600CC21B201320870
:100AD0001E2000380319702DB20AC400DE21672DD4
:100AE0000230B200FA30C500BD20B20B722D0430C6
:100AF000C5000230C600CC21B201320829200038DE
:100B00000319862DB20AC400DE217D2D831605103F
:100B1000831205140130B10031080A3C031CA82DD2
:100B200083168510831285140230B200FA30C50096
:100B3000BD20B20B962D83168510831285100230CE
:100B4000B200FA30C500BD20B20BA12DB10A8C2D28
:100B500083160510831205108A110A12012E8401D2
:100B600083131F308305193083169900A63098002F
:100B700090308312980083161F149F141F159F1125
:100B80008312A401A501A601A7010530AA002F1018
:100B9000FF30B00018292030B1007E217908A30071
:100BA0007808A200B1017E217908A1007808A00090
:100BB000C7210330B4000130B5000830B600023060
:100BC000B700A7227908A5007808A400220824020B
:100BD000031DF02D23082502031DF02D2F1CC42B0F
:100BE00020082402031DFC2D21082502031DFC2DD5
:100BF0003D2C0530AA000B2ED22CAA08031D0B2E6B
:100C00005F2D2108A9002008A8002308A1002208C0
:0A0C1000A000FF30AA00D82D6300F9
:084200000400030002000100AC
:08424000090008000700060058
:02400E00793FF8
:00000001FF
;PIC16F877
