:1000000000308A0054280000253084008313000843
:10001000031918280130F800F701F70B0D28F80B29
:100020000C284A30F700F70B13281628800B0A28F3
:1000300000340030A30083168701831287018316E2
:100040008601831286010230A400FA30A500042044
:10005000A40B2528831686010C30831286000130FC
:10006000A2002208053C031C52280030A30083167E
:1000700087010130831287000430A400FA30A50004
:100080000420A40B3E280030A300831687018312AE
:1000900087010230A400FA30A5000420A40B4B28ED
:1000A000A20A312820100034840183131F308305F5
:1000B000193083169900A63098009030831298006A
:1000C00083161F149F141F159F118312A010FF3059
:1000D000A30083161F149F141F159F1183121F1056
:1000E0008316091283129412A31223088316870021
:1000F000831223162308831687008312A311230873
:100100008316870001308312940000308316940018
:100110000108C73908388100831290010030F800C7
:1001200092000030831692008312201083168601FD
:1001300083128601831686010930831286000130FE
:10014000A1002108093C031CC0280230A4009630FD
:10015000A5000420A40BA7280130A10783160514CD
:100160008312051C20140230A006A018B92887109D
:10017000BA288714A3102308831687008312A128A6
:10018000831686010A30831286000130A1002108FF
:10019000093C031CE6280230A4009630A500042088
:1001A000A40BCD280130A107831605148312051C6A
:1001B00020140230A006A018DF288710E02887143A
:1001C000A3102308831687008312C728201819203C
:1001D000831686012430831286000130A100210895
:1001E000093C031C0E290230A4009630A50004200F
:1001F000A40BF5280130A107831605148312051CF2
:1002000020140230A006A018072987100829871497
:10021000A3102308831687008312EF288316860114
:100220001430831286000130A1002108093C031C10
:1002300034290230A4009630A5000420A40B1B2909
:100240000130A107831605148312051C2014023007
:10025000A006A0182D2987102E298714A310230883
:100260008316870083121529201819209A28630005
:02400E00793FF8
:00000001FF
;PIC16F877
